{
  "_format": "hh-sol-artifact-1",
  "contractName": "Escrow",
  "sourceName": "contracts/Escrow.sol",
  "abi": [
    {
      "inputs": [
        {
          "internalType": "address",
          "name": "_nftAddress",
          "type": "address"
        },
        {
          "internalType": "address payable",
          "name": "_seller",
          "type": "address"
        },
        {
          "internalType": "address",
          "name": "_inspector",
          "type": "address"
        },
        {
          "internalType": "address",
          "name": "_lender",
          "type": "address"
        }
      ],
      "stateMutability": "nonpayable",
      "type": "constructor"
    },
    {
      "inputs": [
        {
          "internalType": "uint256",
          "name": "",
          "type": "uint256"
        },
        {
          "internalType": "address",
          "name": "",
          "type": "address"
        }
      ],
      "name": "approval",
      "outputs": [
        {
          "internalType": "bool",
          "name": "",
          "type": "bool"
        }
      ],
      "stateMutability": "view",
      "type": "function"
    },
    {
      "inputs": [
        {
          "internalType": "uint256",
          "name": "_nftID",
          "type": "uint256"
        }
      ],
      "name": "approveSale",
      "outputs": [],
      "stateMutability": "nonpayable",
      "type": "function"
    },
    {
      "inputs": [
        {
          "internalType": "uint256",
          "name": "",
          "type": "uint256"
        }
      ],
      "name": "buyer",
      "outputs": [
        {
          "internalType": "address",
          "name": "",
          "type": "address"
        }
      ],
      "stateMutability": "view",
      "type": "function"
    },
    {
      "inputs": [
        {
          "internalType": "uint256",
          "name": "_nftID",
          "type": "uint256"
        }
      ],
      "name": "depositEarnest",
      "outputs": [],
      "stateMutability": "payable",
      "type": "function"
    },
    {
      "inputs": [
        {
          "internalType": "uint256",
          "name": "",
          "type": "uint256"
        }
      ],
      "name": "escrowAmount",
      "outputs": [
        {
          "internalType": "uint256",
          "name": "",
          "type": "uint256"
        }
      ],
      "stateMutability": "view",
      "type": "function"
    },
    {
      "inputs": [
        {
          "internalType": "uint256",
          "name": "_nftID",
          "type": "uint256"
        }
      ],
      "name": "finalizeSale",
      "outputs": [],
      "stateMutability": "nonpayable",
      "type": "function"
    },
    {
      "inputs": [],
      "name": "getBalance",
      "outputs": [
        {
          "internalType": "uint256",
          "name": "",
          "type": "uint256"
        }
      ],
      "stateMutability": "view",
      "type": "function"
    },
    {
      "inputs": [
        {
          "internalType": "uint256",
          "name": "",
          "type": "uint256"
        }
      ],
      "name": "inspectionPassed",
      "outputs": [
        {
          "internalType": "bool",
          "name": "",
          "type": "bool"
        }
      ],
      "stateMutability": "view",
      "type": "function"
    },
    {
      "inputs": [],
      "name": "inspector",
      "outputs": [
        {
          "internalType": "address",
          "name": "",
          "type": "address"
        }
      ],
      "stateMutability": "view",
      "type": "function"
    },
    {
      "inputs": [
        {
          "internalType": "uint256",
          "name": "",
          "type": "uint256"
        }
      ],
      "name": "isListed",
      "outputs": [
        {
          "internalType": "bool",
          "name": "",
          "type": "bool"
        }
      ],
      "stateMutability": "view",
      "type": "function"
    },
    {
      "inputs": [],
      "name": "lender",
      "outputs": [
        {
          "internalType": "address",
          "name": "",
          "type": "address"
        }
      ],
      "stateMutability": "view",
      "type": "function"
    },
    {
      "inputs": [
        {
          "internalType": "uint256",
          "name": "_nftID",
          "type": "uint256"
        },
        {
          "internalType": "address",
          "name": "_buyer",
          "type": "address"
        },
        {
          "internalType": "uint256",
          "name": "_purchasePrice",
          "type": "uint256"
        },
        {
          "internalType": "uint256",
          "name": "_escrowAmount",
          "type": "uint256"
        }
      ],
      "name": "list",
      "outputs": [],
      "stateMutability": "payable",
      "type": "function"
    },
    {
      "inputs": [],
      "name": "nftAddress",
      "outputs": [
        {
          "internalType": "address",
          "name": "",
          "type": "address"
        }
      ],
      "stateMutability": "view",
      "type": "function"
    },
    {
      "inputs": [
        {
          "internalType": "uint256",
          "name": "",
          "type": "uint256"
        }
      ],
      "name": "purchasePrice",
      "outputs": [
        {
          "internalType": "uint256",
          "name": "",
          "type": "uint256"
        }
      ],
      "stateMutability": "view",
      "type": "function"
    },
    {
      "inputs": [],
      "name": "seller",
      "outputs": [
        {
          "internalType": "address payable",
          "name": "",
          "type": "address"
        }
      ],
      "stateMutability": "view",
      "type": "function"
    },
    {
      "inputs": [],
      "name": "sellerAction",
      "outputs": [],
      "stateMutability": "view",
      "type": "function"
    },
    {
      "inputs": [
        {
          "internalType": "uint256",
          "name": "_nftID",
          "type": "uint256"
        },
        {
          "internalType": "bool",
          "name": "_passed",
          "type": "bool"
        }
      ],
      "name": "updateInspection",
      "outputs": [],
      "stateMutability": "nonpayable",
      "type": "function"
    },
    {
      "stateMutability": "payable",
      "type": "receive"
    }
  ],
  "bytecode": "0x60806040523480156200001157600080fd5b506040516200150f3803806200150f8339818101604052810190620000379190620001f3565b836000806101000a81548173ffffffffffffffffffffffffffffffffffffffff021916908373ffffffffffffffffffffffffffffffffffffffff16021790555082600160006101000a81548173ffffffffffffffffffffffffffffffffffffffff021916908373ffffffffffffffffffffffffffffffffffffffff16021790555081600260006101000a81548173ffffffffffffffffffffffffffffffffffffffff021916908373ffffffffffffffffffffffffffffffffffffffff16021790555080600360006101000a81548173ffffffffffffffffffffffffffffffffffffffff021916908373ffffffffffffffffffffffffffffffffffffffff1602179055505050505062000265565b600080fd5b600073ffffffffffffffffffffffffffffffffffffffff82169050919050565b6000620001768262000149565b9050919050565b620001888162000169565b81146200019457600080fd5b50565b600081519050620001a8816200017d565b92915050565b6000620001bb8262000149565b9050919050565b620001cd81620001ae565b8114620001d957600080fd5b50565b600081519050620001ed81620001c2565b92915050565b6000806000806080858703121562000210576200020f62000144565b5b6000620002208782880162000197565b94505060206200023387828801620001dc565b9350506040620002468782880162000197565b9250506060620002598782880162000197565b91505092959194509250565b61129a80620002756000396000f3fe6080604052600436106101025760003560e01c806377fbc4ae11610095578063c9f0ec7e11610064578063c9f0ec7e14610354578063e740f77014610370578063ed2cee9e1461038c578063f680038b146103b7578063fcce4883146103e057610109565b806377fbc4ae14610286578063aa929380146102c3578063b848de35146102ec578063bcead63e1461032957610109565b80634dd4acaf116100d15780634dd4acaf146101a45780635bf8633a146101e15780635d19e56c1461020c5780635eed5fff1461024957610109565b806303bfe6821461010e57806308551a531461012557806312065fe01461015057806314a72feb1461017b57610109565b3661010957005b600080fd5b34801561011a57600080fd5b5061012361041d565b005b34801561013157600080fd5b5061013a61053f565b6040516101479190610e34565b60405180910390f35b34801561015c57600080fd5b50610165610565565b6040516101729190610e68565b60405180910390f35b34801561018757600080fd5b506101a2600480360381019061019d9190610eb4565b61056d565b005b3480156101b057600080fd5b506101cb60048036038101906101c69190610eb4565b6105d9565b6040516101d89190610f02565b60405180910390f35b3480156101ed57600080fd5b506101f661060c565b6040516102039190610f02565b60405180910390f35b34801561021857600080fd5b50610233600480360381019061022e9190610eb4565b610630565b6040516102409190610e68565b60405180910390f35b34801561025557600080fd5b50610270600480360381019061026b9190610eb4565b610648565b60405161027d9190610f38565b60405180910390f35b34801561029257600080fd5b506102ad60048036038101906102a89190610eb4565b610668565b6040516102ba9190610e68565b60405180910390f35b3480156102cf57600080fd5b506102ea60048036038101906102e59190610eb4565b610680565b005b3480156102f857600080fd5b50610313600480360381019061030e9190610f7f565b610a00565b6040516103209190610f38565b60405180910390f35b34801561033557600080fd5b5061033e610a2f565b60405161034b9190610f02565b60405180910390f35b61036e60048036038101906103699190610fbf565b610a55565b005b61038a60048036038101906103859190610eb4565b610c28565b005b34801561039857600080fd5b506103a1610cee565b6040516103ae9190610f02565b60405180910390f35b3480156103c357600080fd5b506103de60048036038101906103d99190611052565b610d14565b005b3480156103ec57600080fd5b5061040760048036038101906104029190610eb4565b610dd3565b6040516104149190610f38565b60405180910390f35b600160009054906101000a900473ffffffffffffffffffffffffffffffffffffffff1673ffffffffffffffffffffffffffffffffffffffff163373ffffffffffffffffffffffffffffffffffffffff16146104ad576040517f08c379a00000000000000000000000000000000000000000000000000000000081526004016104a4906110ef565b60405180910390fd5b600160009054906101000a900473ffffffffffffffffffffffffffffffffffffffff1673ffffffffffffffffffffffffffffffffffffffff163373ffffffffffffffffffffffffffffffffffffffff161461053d576040517f08c379a0000000000000000000000000000000000000000000000000000000008152600401610534906110ef565b60405180910390fd5b565b600160009054906101000a900473ffffffffffffffffffffffffffffffffffffffff1681565b600047905090565b60016006600083815260200190815260200160002060003373ffffffffffffffffffffffffffffffffffffffff1673ffffffffffffffffffffffffffffffffffffffff16815260200190815260200160002060006101000a81548160ff02191690831515021790555050565b60096020528060005260406000206000915054906101000a900473ffffffffffffffffffffffffffffffffffffffff1681565b60008054906101000a900473ffffffffffffffffffffffffffffffffffffffff1681565b60086020528060005260406000206000915090505481565b60056020528060005260406000206000915054906101000a900460ff1681565b60076020528060005260406000206000915090505481565b6005600082815260200190815260200160002060009054906101000a900460ff166106aa57600080fd5b6006600082815260200190815260200160002060006009600084815260200190815260200160002060009054906101000a900473ffffffffffffffffffffffffffffffffffffffff1673ffffffffffffffffffffffffffffffffffffffff1673ffffffffffffffffffffffffffffffffffffffff16815260200190815260200160002060009054906101000a900460ff1661074457600080fd5b600660008281526020019081526020016000206000600160009054906101000a900473ffffffffffffffffffffffffffffffffffffffff1673ffffffffffffffffffffffffffffffffffffffff1673ffffffffffffffffffffffffffffffffffffffff16815260200190815260200160002060009054906101000a900460ff166107cd57600080fd5b600660008281526020019081526020016000206000600360009054906101000a900473ffffffffffffffffffffffffffffffffffffffff1673ffffffffffffffffffffffffffffffffffffffff1673ffffffffffffffffffffffffffffffffffffffff16815260200190815260200160002060009054906101000a900460ff1661085657600080fd5b600760008281526020019081526020016000205447101561087657600080fd5b60006004600083815260200190815260200160002060006101000a81548160ff0219169083151502179055506000600160009054906101000a900473ffffffffffffffffffffffffffffffffffffffff1673ffffffffffffffffffffffffffffffffffffffff16476040516108ea90611140565b60006040518083038185875af1925050503d8060008114610927576040519150601f19603f3d011682016040523d82523d6000602084013e61092c565b606091505b505090508061093a57600080fd5b60008054906101000a900473ffffffffffffffffffffffffffffffffffffffff1673ffffffffffffffffffffffffffffffffffffffff166323b872dd306009600086815260200190815260200160002060009054906101000a900473ffffffffffffffffffffffffffffffffffffffff16856040518463ffffffff1660e01b81526004016109ca93929190611155565b600060405180830381600087803b1580156109e457600080fd5b505af11580156109f8573d6000803e3d6000fd5b505050505050565b60066020528160005260406000206020528060005260406000206000915091509054906101000a900460ff1681565b600360009054906101000a900473ffffffffffffffffffffffffffffffffffffffff1681565b600160009054906101000a900473ffffffffffffffffffffffffffffffffffffffff1673ffffffffffffffffffffffffffffffffffffffff163373ffffffffffffffffffffffffffffffffffffffff1614610ae5576040517f08c379a0000000000000000000000000000000000000000000000000000000008152600401610adc906110ef565b60405180910390fd5b60008054906101000a900473ffffffffffffffffffffffffffffffffffffffff1673ffffffffffffffffffffffffffffffffffffffff166323b872dd3330876040518463ffffffff1660e01b8152600401610b4293929190611155565b600060405180830381600087803b158015610b5c57600080fd5b505af1158015610b70573d6000803e3d6000fd5b5050505060016004600086815260200190815260200160002060006101000a81548160ff021916908315150217905550816007600086815260200190815260200160002081905550806008600086815260200190815260200160002081905550826009600086815260200190815260200160002060006101000a81548173ffffffffffffffffffffffffffffffffffffffff021916908373ffffffffffffffffffffffffffffffffffffffff16021790555050505050565b806009600082815260200190815260200160002060009054906101000a900473ffffffffffffffffffffffffffffffffffffffff1673ffffffffffffffffffffffffffffffffffffffff163373ffffffffffffffffffffffffffffffffffffffff1614610cca576040517f08c379a0000000000000000000000000000000000000000000000000000000008152600401610cc1906111d8565b60405180910390fd5b6008600083815260200190815260200160002054341015610cea57600080fd5b5050565b600260009054906101000a900473ffffffffffffffffffffffffffffffffffffffff1681565b600260009054906101000a900473ffffffffffffffffffffffffffffffffffffffff1673ffffffffffffffffffffffffffffffffffffffff163373ffffffffffffffffffffffffffffffffffffffff1614610da4576040517f08c379a0000000000000000000000000000000000000000000000000000000008152600401610d9b90611244565b60405180910390fd5b806005600084815260200190815260200160002060006101000a81548160ff0219169083151502179055505050565b60046020528060005260406000206000915054906101000a900460ff1681565b600073ffffffffffffffffffffffffffffffffffffffff82169050919050565b6000610e1e82610df3565b9050919050565b610e2e81610e13565b82525050565b6000602082019050610e496000830184610e25565b92915050565b6000819050919050565b610e6281610e4f565b82525050565b6000602082019050610e7d6000830184610e59565b92915050565b600080fd5b610e9181610e4f565b8114610e9c57600080fd5b50565b600081359050610eae81610e88565b92915050565b600060208284031215610eca57610ec9610e83565b5b6000610ed884828501610e9f565b91505092915050565b6000610eec82610df3565b9050919050565b610efc81610ee1565b82525050565b6000602082019050610f176000830184610ef3565b92915050565b60008115159050919050565b610f3281610f1d565b82525050565b6000602082019050610f4d6000830184610f29565b92915050565b610f5c81610ee1565b8114610f6757600080fd5b50565b600081359050610f7981610f53565b92915050565b60008060408385031215610f9657610f95610e83565b5b6000610fa485828601610e9f565b9250506020610fb585828601610f6a565b9150509250929050565b60008060008060808587031215610fd957610fd8610e83565b5b6000610fe787828801610e9f565b9450506020610ff887828801610f6a565b935050604061100987828801610e9f565b925050606061101a87828801610e9f565b91505092959194509250565b61102f81610f1d565b811461103a57600080fd5b50565b60008135905061104c81611026565b92915050565b6000806040838503121561106957611068610e83565b5b600061107785828601610e9f565b92505060206110888582860161103d565b9150509250929050565b600082825260208201905092915050565b7f4f6e6c792073656c6c65722063616e2063616c6c207468697300000000000000600082015250565b60006110d9601983611092565b91506110e4826110a3565b602082019050919050565b60006020820190508181036000830152611108816110cc565b9050919050565b600081905092915050565b50565b600061112a60008361110f565b91506111358261111a565b600082019050919050565b600061114b8261111d565b9150819050919050565b600060608201905061116a6000830186610ef3565b6111776020830185610ef3565b6111846040830184610e59565b949350505050565b7f4f6e6c792062757965722063616e2063616c6c20746869730000000000000000600082015250565b60006111c2601883611092565b91506111cd8261118c565b602082019050919050565b600060208201905081810360008301526111f1816111b5565b9050919050565b7f4f6e6c7920696e73706563746f722063616e2063616c6c207468697300000000600082015250565b600061122e601c83611092565b9150611239826111f8565b602082019050919050565b6000602082019050818103600083015261125d81611221565b905091905056fea2646970667358221220b3dc6553bfc1ecb934e87c37d985085b21b612748944ad2202869181cfb3af9164736f6c63430008110033",
  "linkReferences": {},
  "deployedLinkReferences": {}
}